:1000000000308A00192800002C3084008313000877
:10001000031918280130F800F701F70B0D28F80B29
:100020000C284A30F700F70B13281628800B0A28F3
:10003000080003081F39830083168E1507308312CA
:100040009F008313A001A101FF30831685000030BB
:10005000860083128601A6010130A700851B4F2868
:10006000A801A90129080E3C031C3D28851FA80AE8
:100070000130AC000420A90A322828080F3C031DD7
:100080004E28A708031D4E2886143730AC000420E4
:100090008610A70AA6016F30AC0004206D28AA01C3
:1000A000AB012B080E3C031C5C28851BAA0A0130FF
:1000B000AC000420AB0A51282A080F3C031D6D2810
:1000C000A608031D6D2806153730AC000420061164
:1000D000A60AA7016F30AC0004200B30AC0004204E
:0400E0002E28630063
:02400E00183F59
:00000001FF
;PIC16F628A
;CRC=60B2  CREATED="03-Tem-22 22:24"
